{
  "_format": "hh-sol-artifact-1",
  "contractName": "MockDApp",
  "sourceName": "contracts/mock/MockDApp.sol",
  "abi": [
    {
      "inputs": [
        {
          "internalType": "contract VerificationSBT",
          "name": "_SBT",
          "type": "address"
        },
        {
          "internalType": "contract IVerifierWrapper",
          "name": "_verifierWrapper",
          "type": "address"
        }
      ],
      "stateMutability": "nonpayable",
      "type": "constructor"
    },
    {
      "inputs": [],
      "name": "SBT",
      "outputs": [
        {
          "internalType": "contract VerificationSBT",
          "name": "",
          "type": "address"
        }
      ],
      "stateMutability": "view",
      "type": "function"
    },
    {
      "inputs": [
        {
          "internalType": "uint256",
          "name": "tokenIndex",
          "type": "uint256"
        },
        {
          "internalType": "uint256[2]",
          "name": "a",
          "type": "uint256[2]"
        },
        {
          "internalType": "uint256[2][2]",
          "name": "b",
          "type": "uint256[2][2]"
        },
        {
          "internalType": "uint256[2]",
          "name": "c",
          "type": "uint256[2]"
        },
        {
          "internalType": "uint256[19]",
          "name": "input",
          "type": "uint256[19]"
        }
      ],
      "name": "airdropToken",
      "outputs": [],
      "stateMutability": "nonpayable",
      "type": "function"
    },
    {
      "inputs": [
        {
          "internalType": "bytes32",
          "name": "",
          "type": "bytes32"
        }
      ],
      "name": "hasReceivedToken1",
      "outputs": [
        {
          "internalType": "bool",
          "name": "",
          "type": "bool"
        }
      ],
      "stateMutability": "view",
      "type": "function"
    },
    {
      "inputs": [
        {
          "internalType": "bytes32",
          "name": "",
          "type": "bytes32"
        }
      ],
      "name": "hasReceivedToken2",
      "outputs": [
        {
          "internalType": "bool",
          "name": "",
          "type": "bool"
        }
      ],
      "stateMutability": "view",
      "type": "function"
    },
    {
      "inputs": [
        {
          "internalType": "contract ERC20",
          "name": "_token1",
          "type": "address"
        }
      ],
      "name": "setToken1",
      "outputs": [],
      "stateMutability": "nonpayable",
      "type": "function"
    },
    {
      "inputs": [
        {
          "internalType": "contract ERC20",
          "name": "_token2",
          "type": "address"
        }
      ],
      "name": "setToken2",
      "outputs": [],
      "stateMutability": "nonpayable",
      "type": "function"
    },
    {
      "inputs": [],
      "name": "token1",
      "outputs": [
        {
          "internalType": "contract ERC20",
          "name": "",
          "type": "address"
        }
      ],
      "stateMutability": "view",
      "type": "function"
    },
    {
      "inputs": [],
      "name": "token1AirdropAmount",
      "outputs": [
        {
          "internalType": "uint256",
          "name": "",
          "type": "uint256"
        }
      ],
      "stateMutability": "view",
      "type": "function"
    },
    {
      "inputs": [],
      "name": "token2",
      "outputs": [
        {
          "internalType": "contract ERC20",
          "name": "",
          "type": "address"
        }
      ],
      "stateMutability": "view",
      "type": "function"
    },
    {
      "inputs": [],
      "name": "token2AirdropAmount",
      "outputs": [
        {
          "internalType": "uint256",
          "name": "",
          "type": "uint256"
        }
      ],
      "stateMutability": "view",
      "type": "function"
    },
    {
      "inputs": [],
      "name": "verifierWrapper",
      "outputs": [
        {
          "internalType": "contract IVerifierWrapper",
          "name": "",
          "type": "address"
        }
      ],
      "stateMutability": "view",
      "type": "function"
    }
  ],
  "bytecode": "0x60806040523480156200001157600080fd5b506040516200192f3803806200192f833981810160405281019062000037919062000184565b81600460006101000a81548173ffffffffffffffffffffffffffffffffffffffff021916908373ffffffffffffffffffffffffffffffffffffffff16021790555080600560006101000a81548173ffffffffffffffffffffffffffffffffffffffff021916908373ffffffffffffffffffffffffffffffffffffffff1602179055505050620001cb565b600080fd5b600073ffffffffffffffffffffffffffffffffffffffff82169050919050565b6000620000f382620000c6565b9050919050565b60006200010782620000e6565b9050919050565b6200011981620000fa565b81146200012557600080fd5b50565b60008151905062000139816200010e565b92915050565b60006200014c82620000e6565b9050919050565b6200015e816200013f565b81146200016a57600080fd5b50565b6000815190506200017e8162000153565b92915050565b600080604083850312156200019e576200019d620000c1565b5b6000620001ae8582860162000128565b9250506020620001c1858286016200016d565b9150509250929050565b61175480620001db6000396000f3fe608060405234801561001057600080fd5b50600436106100a95760003560e01c80638c3b0e89116100715780638c3b0e8914610168578063a323a74814610184578063b79ea884146101a2578063d21220a7146101be578063ec794bce146101dc578063f0d75ac0146101fa576100a9565b8063030edb53146100ae578063148598d6146100de57806314ab7f8f1461010e57806325be124e1461012c5780638a0c0b321461014a575b600080fd5b6100c860048036038101906100c39190610af5565b610216565b6040516100d59190610b3d565b60405180910390f35b6100f860048036038101906100f39190610af5565b610236565b6040516101059190610b3d565b60405180910390f35b610116610256565b6040516101239190610b71565b60405180910390f35b61013461025b565b6040516101419190610c0b565b60405180910390f35b610152610281565b60405161015f9190610c47565b60405180910390f35b610182600480360381019061017d9190610f37565b6102a7565b005b61018c6109d7565b6040516101999190610fd5565b60405180910390f35b6101bc60048036038101906101b79190611040565b6109fd565b005b6101c6610a41565b6040516101d39190610c0b565b60405180910390f35b6101e4610a67565b6040516101f19190610b71565b60405180910390f35b610214600480360381019061020f9190611040565b610a6c565b005b60006020528060005260406000206000915054906101000a900460ff1681565b60016020528060005260406000206000915054906101000a900460ff1681565b606481565b600360009054906101000a900473ffffffffffffffffffffffffffffffffffffffff1681565b600560009054906101000a900473ffffffffffffffffffffffffffffffffffffffff1681565b6000600460009054906101000a900473ffffffffffffffffffffffffffffffffffffffff1673ffffffffffffffffffffffffffffffffffffffff16633662458d33306040518363ffffffff1660e01b815260040161030692919061107c565b602060405180830381865afa158015610323573d6000803e3d6000fd5b505050506040513d601f19601f8201168201806040525081019061034791906110d1565b61067e5781600f6013811061035f5761035e6110fe565b5b602002015160001b905060008260106013811061037f5761037e6110fe565b5b602002015190503073ffffffffffffffffffffffffffffffffffffffff1681146103de576040517f08c379a00000000000000000000000000000000000000000000000000000000081526004016103d59061118a565b60405180910390fd5b600560009054906101000a900473ffffffffffffffffffffffffffffffffffffffff1673ffffffffffffffffffffffffffffffffffffffff1663f3f22e72878787876040518563ffffffff1660e01b815260040161043f94939291906113d7565b602060405180830381865afa15801561045c573d6000803e3d6000fd5b505050506040513d601f19601f8201168201806040525081019061048091906110d1565b6104bf576040517f08c379a00000000000000000000000000000000000000000000000000000000081526004016104b69061146a565b60405180910390fd5b60006040518060400160405280856000601381106104e0576104df6110fe565b5b60200201518152602001856001601381106104fe576104fd6110fe565b5b602002015181525090506000604051806040016040528086600260138110610529576105286110fe565b5b602002015160001b81526020018660036013811061054a576105496110fe565b5b602002015160001b815250905060008560056013811061056d5761056c6110fe565b5b602002015190506000604051806040016040528088601160138110610595576105946110fe565b5b60200201518152602001886012601381106105b3576105b26110fe565b5b60200201518152509050600460009054906101000a900473ffffffffffffffffffffffffffffffffffffffff1673ffffffffffffffffffffffffffffffffffffffff16634e8325ba33600560009054906101000a900473ffffffffffffffffffffffffffffffffffffffff168587898c886040518863ffffffff1660e01b81526004016106469796959493929190611544565b600060405180830381600087803b15801561066057600080fd5b505af1158015610674573d6000803e3d6000fd5b5050505050505050505b600460009054906101000a900473ffffffffffffffffffffffffffffffffffffffff1673ffffffffffffffffffffffffffffffffffffffff1663df397c7d33306040518363ffffffff1660e01b81526004016106db92919061107c565b602060405180830381865afa1580156106f8573d6000803e3d6000fd5b505050506040513d601f19601f8201168201806040525081019061071c91906115ca565b9050600186036108585760008082815260200190815260200160002060009054906101000a900460ff1615610786576040517f08c379a000000000000000000000000000000000000000000000000000000000815260040161077d90611669565b60405180910390fd5b600260009054906101000a900473ffffffffffffffffffffffffffffffffffffffff1673ffffffffffffffffffffffffffffffffffffffff1663a9059cbb3360646040518363ffffffff1660e01b81526004016107e4929190611689565b6020604051808303816000875af1158015610803573d6000803e3d6000fd5b505050506040513d601f19601f8201168201806040525081019061082791906110d1565b50600160008083815260200190815260200160002060006101000a81548160ff0219169083151502179055506109cf565b60028603610993576001600082815260200190815260200160002060009054906101000a900460ff16156108c1576040517f08c379a00000000000000000000000000000000000000000000000000000000081526004016108b890611669565b60405180910390fd5b600260009054906101000a900473ffffffffffffffffffffffffffffffffffffffff1673ffffffffffffffffffffffffffffffffffffffff1663a9059cbb3360646040518363ffffffff1660e01b815260040161091f929190611689565b6020604051808303816000875af115801561093e573d6000803e3d6000fd5b505050506040513d601f19601f8201168201806040525081019061096291906110d1565b50600180600083815260200190815260200160002060006101000a81548160ff0219169083151502179055506109ce565b6040517f08c379a00000000000000000000000000000000000000000000000000000000081526004016109c5906116fe565b60405180910390fd5b5b505050505050565b600460009054906101000a900473ffffffffffffffffffffffffffffffffffffffff1681565b80600260006101000a81548173ffffffffffffffffffffffffffffffffffffffff021916908373ffffffffffffffffffffffffffffffffffffffff16021790555050565b600260009054906101000a900473ffffffffffffffffffffffffffffffffffffffff1681565b606481565b80600360006101000a81548173ffffffffffffffffffffffffffffffffffffffff021916908373ffffffffffffffffffffffffffffffffffffffff16021790555050565b6000604051905090565b600080fd5b6000819050919050565b610ad281610abf565b8114610add57600080fd5b50565b600081359050610aef81610ac9565b92915050565b600060208284031215610b0b57610b0a610aba565b5b6000610b1984828501610ae0565b91505092915050565b60008115159050919050565b610b3781610b22565b82525050565b6000602082019050610b526000830184610b2e565b92915050565b6000819050919050565b610b6b81610b58565b82525050565b6000602082019050610b866000830184610b62565b92915050565b600073ffffffffffffffffffffffffffffffffffffffff82169050919050565b6000819050919050565b6000610bd1610bcc610bc784610b8c565b610bac565b610b8c565b9050919050565b6000610be382610bb6565b9050919050565b6000610bf582610bd8565b9050919050565b610c0581610bea565b82525050565b6000602082019050610c206000830184610bfc565b92915050565b6000610c3182610bd8565b9050919050565b610c4181610c26565b82525050565b6000602082019050610c5c6000830184610c38565b92915050565b610c6b81610b58565b8114610c7657600080fd5b50565b600081359050610c8881610c62565b92915050565b600080fd5b6000601f19601f8301169050919050565b7f4e487b7100000000000000000000000000000000000000000000000000000000600052604160045260246000fd5b610cdc82610c93565b810181811067ffffffffffffffff82111715610cfb57610cfa610ca4565b5b80604052505050565b6000610d0e610ab0565b9050610d1a8282610cd3565b919050565b600067ffffffffffffffff821115610d3a57610d39610ca4565b5b602082029050919050565b600080fd5b6000610d5d610d5884610d1f565b610d04565b90508060208402830185811115610d7757610d76610d45565b5b835b81811015610da05780610d8c8882610c79565b845260208401935050602081019050610d79565b5050509392505050565b600082601f830112610dbf57610dbe610c8e565b5b6002610dcc848285610d4a565b91505092915050565b600067ffffffffffffffff821115610df057610def610ca4565b5b602082029050919050565b6000610e0e610e0984610dd5565b610d04565b90508060408402830185811115610e2857610e27610d45565b5b835b81811015610e515780610e3d8882610daa565b845260208401935050604081019050610e2a565b5050509392505050565b600082601f830112610e7057610e6f610c8e565b5b6002610e7d848285610dfb565b91505092915050565b600067ffffffffffffffff821115610ea157610ea0610ca4565b5b602082029050919050565b6000610ebf610eba84610e86565b610d04565b90508060208402830185811115610ed957610ed8610d45565b5b835b81811015610f025780610eee8882610c79565b845260208401935050602081019050610edb565b5050509392505050565b600082601f830112610f2157610f20610c8e565b5b6013610f2e848285610eac565b91505092915050565b60008060008060006103808688031215610f5457610f53610aba565b5b6000610f6288828901610c79565b9550506020610f7388828901610daa565b9450506060610f8488828901610e5b565b93505060e0610f9588828901610daa565b925050610120610fa788828901610f0c565b9150509295509295909350565b6000610fbf82610bd8565b9050919050565b610fcf81610fb4565b82525050565b6000602082019050610fea6000830184610fc6565b92915050565b6000610ffb82610b8c565b9050919050565b600061100d82610ff0565b9050919050565b61101d81611002565b811461102857600080fd5b50565b60008135905061103a81611014565b92915050565b60006020828403121561105657611055610aba565b5b60006110648482850161102b565b91505092915050565b61107681610ff0565b82525050565b6000604082019050611091600083018561106d565b61109e602083018461106d565b9392505050565b6110ae81610b22565b81146110b957600080fd5b50565b6000815190506110cb816110a5565b92915050565b6000602082840312156110e7576110e6610aba565b5b60006110f5848285016110bc565b91505092915050565b7f4e487b7100000000000000000000000000000000000000000000000000000000600052603260045260246000fd5b600082825260208201905092915050565b7f696e636f72726563742064417070416464726573730000000000000000000000600082015250565b600061117460158361112d565b915061117f8261113e565b602082019050919050565b600060208201905081810360008301526111a381611167565b9050919050565b600060029050919050565b600081905092915050565b6000819050919050565b6111d381610b58565b82525050565b60006111e583836111ca565b60208301905092915050565b6000602082019050919050565b611207816111aa565b61121181846111b5565b925061121c826111c0565b8060005b8381101561124d57815161123487826111d9565b965061123f836111f1565b925050600181019050611220565b505050505050565b600060029050919050565b600081905092915050565b6000819050919050565b600081905092915050565b611289816111aa565b6112938184611275565b925061129e826111c0565b8060005b838110156112cf5781516112b687826111d9565b96506112c1836111f1565b9250506001810190506112a2565b505050505050565b60006112e38383611280565b60408301905092915050565b6000602082019050919050565b61130581611255565b61130f8184611260565b925061131a8261126b565b8060005b8381101561134b57815161133287826112d7565b965061133d836112ef565b92505060018101905061131e565b505050505050565b600060139050919050565b600081905092915050565b6000819050919050565b6000602082019050919050565b61138981611353565b611393818461135e565b925061139e82611369565b8060005b838110156113cf5781516113b687826111d9565b96506113c183611373565b9250506001810190506113a2565b505050505050565b6000610360820190506113ed60008301876111fe565b6113fa60408301866112fc565b61140760c08301856111fe565b611415610100830184611380565b95945050505050565b7f7a6b2070726f6f6620697320696e76616c696400000000000000000000000000600082015250565b600061145460138361112d565b915061145f8261141e565b602082019050919050565b6000602082019050818103600083015261148381611447565b9050919050565b600060029050919050565b600081905092915050565b6000819050919050565b6114b381610abf565b82525050565b60006114c583836114aa565b60208301905092915050565b6000602082019050919050565b6114e78161148a565b6114f18184611495565b92506114fc826114a0565b8060005b8381101561152d57815161151487826114b9565b965061151f836114d1565b925050600181019050611500565b505050505050565b61153e81610abf565b82525050565b60006101408201905061155a600083018a61106d565b6115676020830189610c38565b6115746040830188610b62565b61158160608301876114de565b61158e60a08301866111fe565b61159b60e0830185611535565b6115a96101008301846111fe565b98975050505050505050565b6000815190506115c481610ac9565b92915050565b6000602082840312156115e0576115df610aba565b5b60006115ee848285016115b5565b91505092915050565b7f746869732068756d616e6449442068617320616c72656164792072656365697660008201527f656420746869732061697264726f700000000000000000000000000000000000602082015250565b6000611653602f8361112d565b915061165e826115f7565b604082019050919050565b6000602082019050818103600083015261168281611646565b9050919050565b600060408201905061169e600083018561106d565b6116ab6020830184610b62565b9392505050565b7f696e76616c696420746f6b656e20696e64657800000000000000000000000000600082015250565b60006116e860138361112d565b91506116f3826116b2565b602082019050919050565b60006020820190508181036000830152611717816116db565b905091905056fea2646970667358221220e010854ddf1c88dbe38872c1608b35b09c0be347bf6118ced62f19a97788d70764736f6c63430008110033",
  "linkReferences": {},
  "deployedLinkReferences": {}
}