{
  "_format": "hh-sol-artifact-1",
  "contractName": "TwitterFollowersCountProof",
  "sourceName": "contracts/TwitterFollowersCountProof.sol",
  "abi": [
    {
      "inputs": [
        {
          "internalType": "address",
          "name": "_owner",
          "type": "address"
        },
        {
          "internalType": "address",
          "name": "_verifier",
          "type": "address"
        },
        {
          "internalType": "address",
          "name": "_registry",
          "type": "address"
        }
      ],
      "stateMutability": "nonpayable",
      "type": "constructor"
    },
    {
      "anonymous": false,
      "inputs": [
        {
          "indexed": true,
          "internalType": "address",
          "name": "previousOwner",
          "type": "address"
        },
        {
          "indexed": true,
          "internalType": "address",
          "name": "newOwner",
          "type": "address"
        }
      ],
      "name": "OwnershipTransferred",
      "type": "event"
    },
    {
      "inputs": [],
      "name": "INDEX_CURRENT_TIME",
      "outputs": [
        {
          "internalType": "uint8",
          "name": "",
          "type": "uint8"
        }
      ],
      "stateMutability": "view",
      "type": "function"
    },
    {
      "inputs": [],
      "name": "INDEX_FOLLOWERS_COUNT_THRESHOLD",
      "outputs": [
        {
          "internalType": "uint8",
          "name": "",
          "type": "uint8"
        }
      ],
      "stateMutability": "view",
      "type": "function"
    },
    {
      "inputs": [],
      "name": "INDEX_IS_VALID",
      "outputs": [
        {
          "internalType": "uint8",
          "name": "",
          "type": "uint8"
        }
      ],
      "stateMutability": "view",
      "type": "function"
    },
    {
      "inputs": [],
      "name": "INDEX_PROVIDER_PUBKEY_AX",
      "outputs": [
        {
          "internalType": "uint8",
          "name": "",
          "type": "uint8"
        }
      ],
      "stateMutability": "view",
      "type": "function"
    },
    {
      "inputs": [],
      "name": "INDEX_PROVIDER_PUBKEY_AY",
      "outputs": [
        {
          "internalType": "uint8",
          "name": "",
          "type": "uint8"
        }
      ],
      "stateMutability": "view",
      "type": "function"
    },
    {
      "inputs": [],
      "name": "INDEX_ROOT",
      "outputs": [
        {
          "internalType": "uint8",
          "name": "",
          "type": "uint8"
        }
      ],
      "stateMutability": "view",
      "type": "function"
    },
    {
      "inputs": [],
      "name": "INDEX_USER_ADDRESS",
      "outputs": [
        {
          "internalType": "uint8",
          "name": "",
          "type": "uint8"
        }
      ],
      "stateMutability": "view",
      "type": "function"
    },
    {
      "inputs": [],
      "name": "INDEX_VERIFICATION_EXPIRATION",
      "outputs": [
        {
          "internalType": "uint8",
          "name": "",
          "type": "uint8"
        }
      ],
      "stateMutability": "view",
      "type": "function"
    },
    {
      "inputs": [],
      "name": "newOwner",
      "outputs": [
        {
          "internalType": "address",
          "name": "",
          "type": "address"
        }
      ],
      "stateMutability": "view",
      "type": "function"
    },
    {
      "inputs": [],
      "name": "owner",
      "outputs": [
        {
          "internalType": "address",
          "name": "",
          "type": "address"
        }
      ],
      "stateMutability": "view",
      "type": "function"
    },
    {
      "inputs": [],
      "name": "registry",
      "outputs": [
        {
          "internalType": "contract IZkCertificateRegistry",
          "name": "",
          "type": "address"
        }
      ],
      "stateMutability": "view",
      "type": "function"
    },
    {
      "inputs": [],
      "name": "renounceOwnership",
      "outputs": [],
      "stateMutability": "nonpayable",
      "type": "function"
    },
    {
      "inputs": [
        {
          "internalType": "address",
          "name": "_newOwner",
          "type": "address"
        }
      ],
      "name": "setNewOwner",
      "outputs": [],
      "stateMutability": "nonpayable",
      "type": "function"
    },
    {
      "inputs": [
        {
          "internalType": "contract IZkCertificateRegistry",
          "name": "newRegistry",
          "type": "address"
        }
      ],
      "name": "setRegistry",
      "outputs": [],
      "stateMutability": "nonpayable",
      "type": "function"
    },
    {
      "inputs": [
        {
          "internalType": "contract ITwitterZkCertificateVerifier",
          "name": "newVerifier",
          "type": "address"
        }
      ],
      "name": "setVerifier",
      "outputs": [],
      "stateMutability": "nonpayable",
      "type": "function"
    },
    {
      "inputs": [],
      "name": "timeDifferenceTolerance",
      "outputs": [
        {
          "internalType": "uint256",
          "name": "",
          "type": "uint256"
        }
      ],
      "stateMutability": "view",
      "type": "function"
    },
    {
      "inputs": [],
      "name": "transferOwnership",
      "outputs": [],
      "stateMutability": "nonpayable",
      "type": "function"
    },
    {
      "inputs": [],
      "name": "verifier",
      "outputs": [
        {
          "internalType": "contract ITwitterZkCertificateVerifier",
          "name": "",
          "type": "address"
        }
      ],
      "stateMutability": "view",
      "type": "function"
    },
    {
      "inputs": [
        {
          "internalType": "uint256[2]",
          "name": "a",
          "type": "uint256[2]"
        },
        {
          "internalType": "uint256[2][2]",
          "name": "b",
          "type": "uint256[2][2]"
        },
        {
          "internalType": "uint256[2]",
          "name": "c",
          "type": "uint256[2]"
        },
        {
          "internalType": "uint256[]",
          "name": "input",
          "type": "uint256[]"
        }
      ],
      "name": "verifyProof",
      "outputs": [
        {
          "internalType": "bool",
          "name": "",
          "type": "bool"
        }
      ],
      "stateMutability": "view",
      "type": "function"
    }
  ],
  "bytecode": "0x6101806040523480156200001257600080fd5b506040516200211f3803806200211f833981810160405281019062000038919062000246565b82806000806101000a81548173ffffffffffffffffffffffffffffffffffffffff021916908373ffffffffffffffffffffffffffffffffffffffff1602179055508073ffffffffffffffffffffffffffffffffffffffff16600073ffffffffffffffffffffffffffffffffffffffff167f8be0079c531659141344cd1fd0a4f28419497f9722a3daafe3b4186f6b6457e060405160405180910390a35081600260006101000a81548173ffffffffffffffffffffffffffffffffffffffff021916908373ffffffffffffffffffffffffffffffffffffffff16021790555080600360006101000a81548173ffffffffffffffffffffffffffffffffffffffff021916908373ffffffffffffffffffffffffffffffffffffffff160217905550600060ff1660808160ff1681525050600160ff1660a08160ff1681525050600260ff1660c08160ff1681525050600360ff1660e08160ff1681525050600460ff166101008160ff1681525050600560ff166101208160ff1681525050600660ff166101408160ff1681525050600760ff166101608160ff1681525050505050620002a2565b600080fd5b600073ffffffffffffffffffffffffffffffffffffffff82169050919050565b60006200020e82620001e1565b9050919050565b620002208162000201565b81146200022c57600080fd5b50565b600081519050620002408162000215565b92915050565b600080600060608486031215620002625762000261620001dc565b5b600062000272868287016200022f565b935050602062000285868287016200022f565b925050604062000298868287016200022f565b9150509250925092565b60805160a05160c05160e05161010051610120516101405161016051611dfb62000324600039600061038e015260006108660152600061036a0152600081816104260152610bed0152600081816103fc0152610b3c01526000818161051c0152610a25015260006103460152600081816103b201526109a50152611dfb6000f3fe608060405234801561001057600080fd5b50600436106101215760003560e01c80635c40e399116100ad5780639a90f858116100715780639a90f858146102a0578063a91ee0dc146102be578063c32e370e146102da578063d4ee1d901461030a578063f5a1f5b41461032857610121565b80635c40e39914610232578063715018a6146102505780637b1039991461025a578063880ad0af146102785780638da5cb5b1461028257610121565b80632b7ac3f3116100f45780632b7ac3f31461019e57806340e2b237146101bc57806341af9941146101da5780634882e4db146101f85780635437988d1461021657610121565b8063139871b0146101265780631c36457914610144578063263822421461016257806328fc335514610180575b600080fd5b61012e610344565b60405161013b9190610f08565b60405180910390f35b61014c610368565b6040516101599190610f08565b60405180910390f35b61016a61038c565b6040516101779190610f08565b60405180910390f35b6101886103b0565b6040516101959190610f08565b60405180910390f35b6101a66103d4565b6040516101b39190610fa2565b60405180910390f35b6101c46103fa565b6040516101d19190610f08565b60405180910390f35b6101e261041e565b6040516101ef9190610fd6565b60405180910390f35b610200610424565b60405161020d9190610f08565b60405180910390f35b610230600480360381019061022b9190611055565b610448565b005b61023a61051a565b6040516102479190610f08565b60405180910390f35b61025861053e565b005b61026261068a565b60405161026f91906110a3565b60405180910390f35b6102806106b0565b005b61028a610840565b60405161029791906110cd565b60405180910390f35b6102a8610864565b6040516102b59190610f08565b60405180910390f35b6102d860048036038101906102d39190611126565b610888565b005b6102f460048036038101906102ef919061143a565b61095a565b60405161030191906114da565b60405180910390f35b610312610d85565b60405161031f91906110cd565b60405180910390f35b610342600480360381019061033d9190611521565b610dab565b005b7f000000000000000000000000000000000000000000000000000000000000000081565b7f000000000000000000000000000000000000000000000000000000000000000081565b7f000000000000000000000000000000000000000000000000000000000000000081565b7f000000000000000000000000000000000000000000000000000000000000000081565b600260009054906101000a900473ffffffffffffffffffffffffffffffffffffffff1681565b7f000000000000000000000000000000000000000000000000000000000000000081565b61070881565b7f000000000000000000000000000000000000000000000000000000000000000081565b60008054906101000a900473ffffffffffffffffffffffffffffffffffffffff1673ffffffffffffffffffffffffffffffffffffffff163373ffffffffffffffffffffffffffffffffffffffff16146104d6576040517f08c379a00000000000000000000000000000000000000000000000000000000081526004016104cd906115ab565b60405180910390fd5b80600260006101000a81548173ffffffffffffffffffffffffffffffffffffffff021916908373ffffffffffffffffffffffffffffffffffffffff16021790555050565b7f000000000000000000000000000000000000000000000000000000000000000081565b60008054906101000a900473ffffffffffffffffffffffffffffffffffffffff1673ffffffffffffffffffffffffffffffffffffffff163373ffffffffffffffffffffffffffffffffffffffff16146105cc576040517f08c379a00000000000000000000000000000000000000000000000000000000081526004016105c3906115ab565b60405180910390fd5b600073ffffffffffffffffffffffffffffffffffffffff1660008054906101000a900473ffffffffffffffffffffffffffffffffffffffff1673ffffffffffffffffffffffffffffffffffffffff167f8be0079c531659141344cd1fd0a4f28419497f9722a3daafe3b4186f6b6457e060405160405180910390a360008060006101000a81548173ffffffffffffffffffffffffffffffffffffffff021916908373ffffffffffffffffffffffffffffffffffffffff160217905550565b600360009054906101000a900473ffffffffffffffffffffffffffffffffffffffff1681565b600160009054906101000a900473ffffffffffffffffffffffffffffffffffffffff1673ffffffffffffffffffffffffffffffffffffffff163373ffffffffffffffffffffffffffffffffffffffff1614610740576040517f08c379a00000000000000000000000000000000000000000000000000000000081526004016107379061163d565b60405180910390fd5b600160009054906101000a900473ffffffffffffffffffffffffffffffffffffffff1673ffffffffffffffffffffffffffffffffffffffff1660008054906101000a900473ffffffffffffffffffffffffffffffffffffffff1673ffffffffffffffffffffffffffffffffffffffff167f8be0079c531659141344cd1fd0a4f28419497f9722a3daafe3b4186f6b6457e060405160405180910390a3600160009054906101000a900473ffffffffffffffffffffffffffffffffffffffff166000806101000a81548173ffffffffffffffffffffffffffffffffffffffff021916908373ffffffffffffffffffffffffffffffffffffffff160217905550565b60008054906101000a900473ffffffffffffffffffffffffffffffffffffffff1681565b7f000000000000000000000000000000000000000000000000000000000000000081565b60008054906101000a900473ffffffffffffffffffffffffffffffffffffffff1673ffffffffffffffffffffffffffffffffffffffff163373ffffffffffffffffffffffffffffffffffffffff1614610916576040517f08c379a000000000000000000000000000000000000000000000000000000000815260040161090d906115ab565b60405180910390fd5b80600360006101000a81548173ffffffffffffffffffffffffffffffffffffffff021916908373ffffffffffffffffffffffffffffffffffffffff16021790555050565b600060088251146109a0576040517f08c379a0000000000000000000000000000000000000000000000000000000008152600401610997906116cf565b60405180910390fd5b6001827f000000000000000000000000000000000000000000000000000000000000000060ff16815181106109d8576109d76116ef565b5b602002602001015114610a20576040517f08c379a0000000000000000000000000000000000000000000000000000000008152600401610a179061176a565b60405180910390fd5b6000827f000000000000000000000000000000000000000000000000000000000000000060ff1681518110610a5857610a576116ef565b5b602002602001015160001b905080600360009054906101000a900473ffffffffffffffffffffffffffffffffffffffff1673ffffffffffffffffffffffffffffffffffffffff16632eb4a7ab6040518163ffffffff1660e01b8152600401602060405180830381865afa158015610ad3573d6000803e3d6000fd5b505050506040513d601f19601f82011682018060405250810190610af791906117c0565b14610b37576040517f08c379a0000000000000000000000000000000000000000000000000000000008152600401610b2e9061185f565b60405180910390fd5b6000837f000000000000000000000000000000000000000000000000000000000000000060ff1681518110610b6f57610b6e6116ef565b5b60200260200101519050600042821115610b96574282610b8f91906118ae565b9050610ba5565b8142610ba291906118ae565b90505b610708811115610bea576040517f08c379a0000000000000000000000000000000000000000000000000000000008152600401610be19061192e565b60405180910390fd5b847f000000000000000000000000000000000000000000000000000000000000000060ff1681518110610c2057610c1f6116ef565b5b602002602001015173ffffffffffffffffffffffffffffffffffffffff163273ffffffffffffffffffffffffffffffffffffffff1614610c95576040517f08c379a0000000000000000000000000000000000000000000000000000000008152600401610c8c906119c0565b60405180910390fd5b600260009054906101000a900473ffffffffffffffffffffffffffffffffffffffff1673ffffffffffffffffffffffffffffffffffffffff1663c32e370e898989896040518563ffffffff1660e01b8152600401610cf69493929190611c20565b602060405180830381865afa158015610d13573d6000803e3d6000fd5b505050506040513d601f19601f82011682018060405250810190610d379190611c9a565b610d76576040517f08c379a0000000000000000000000000000000000000000000000000000000008152600401610d6d90611d13565b60405180910390fd5b60019350505050949350505050565b600160009054906101000a900473ffffffffffffffffffffffffffffffffffffffff1681565b60008054906101000a900473ffffffffffffffffffffffffffffffffffffffff1673ffffffffffffffffffffffffffffffffffffffff163373ffffffffffffffffffffffffffffffffffffffff1614610e39576040517f08c379a0000000000000000000000000000000000000000000000000000000008152600401610e30906115ab565b60405180910390fd5b600073ffffffffffffffffffffffffffffffffffffffff168173ffffffffffffffffffffffffffffffffffffffff1603610ea8576040517f08c379a0000000000000000000000000000000000000000000000000000000008152600401610e9f90611da5565b60405180910390fd5b80600160006101000a81548173ffffffffffffffffffffffffffffffffffffffff021916908373ffffffffffffffffffffffffffffffffffffffff16021790555050565b600060ff82169050919050565b610f0281610eec565b82525050565b6000602082019050610f1d6000830184610ef9565b92915050565b600073ffffffffffffffffffffffffffffffffffffffff82169050919050565b6000819050919050565b6000610f68610f63610f5e84610f23565b610f43565b610f23565b9050919050565b6000610f7a82610f4d565b9050919050565b6000610f8c82610f6f565b9050919050565b610f9c81610f81565b82525050565b6000602082019050610fb76000830184610f93565b92915050565b6000819050919050565b610fd081610fbd565b82525050565b6000602082019050610feb6000830184610fc7565b92915050565b6000604051905090565b600080fd5b600080fd5b600061101082610f23565b9050919050565b600061102282611005565b9050919050565b61103281611017565b811461103d57600080fd5b50565b60008135905061104f81611029565b92915050565b60006020828403121561106b5761106a610ffb565b5b600061107984828501611040565b91505092915050565b600061108d82610f6f565b9050919050565b61109d81611082565b82525050565b60006020820190506110b86000830184611094565b92915050565b6110c781611005565b82525050565b60006020820190506110e260008301846110be565b92915050565b60006110f382611005565b9050919050565b611103816110e8565b811461110e57600080fd5b50565b600081359050611120816110fa565b92915050565b60006020828403121561113c5761113b610ffb565b5b600061114a84828501611111565b91505092915050565b600080fd5b6000601f19601f8301169050919050565b7f4e487b7100000000000000000000000000000000000000000000000000000000600052604160045260246000fd5b6111a182611158565b810181811067ffffffffffffffff821117156111c0576111bf611169565b5b80604052505050565b60006111d3610ff1565b90506111df8282611198565b919050565b600067ffffffffffffffff8211156111ff576111fe611169565b5b602082029050919050565b600080fd5b61121881610fbd565b811461122357600080fd5b50565b6000813590506112358161120f565b92915050565b600061124e611249846111e4565b6111c9565b905080602084028301858111156112685761126761120a565b5b835b81811015611291578061127d8882611226565b84526020840193505060208101905061126a565b5050509392505050565b600082601f8301126112b0576112af611153565b5b60026112bd84828561123b565b91505092915050565b600067ffffffffffffffff8211156112e1576112e0611169565b5b602082029050919050565b60006112ff6112fa846112c6565b6111c9565b905080604084028301858111156113195761131861120a565b5b835b81811015611342578061132e888261129b565b84526020840193505060408101905061131b565b5050509392505050565b600082601f83011261136157611360611153565b5b600261136e8482856112ec565b91505092915050565b600067ffffffffffffffff82111561139257611391611169565b5b602082029050602081019050919050565b60006113b66113b184611377565b6111c9565b905080838252602082019050602084028301858111156113d9576113d861120a565b5b835b8181101561140257806113ee8882611226565b8452602084019350506020810190506113db565b5050509392505050565b600082601f83011261142157611420611153565b5b81356114318482602086016113a3565b91505092915050565b600080600080610120858703121561145557611454610ffb565b5b60006114638782880161129b565b94505060406114748782880161134c565b93505060c06114858782880161129b565b92505061010085013567ffffffffffffffff8111156114a7576114a6611000565b5b6114b38782880161140c565b91505092959194509250565b60008115159050919050565b6114d4816114bf565b82525050565b60006020820190506114ef60008301846114cb565b92915050565b6114fe81611005565b811461150957600080fd5b50565b60008135905061151b816114f5565b92915050565b60006020828403121561153757611536610ffb565b5b60006115458482850161150c565b91505092915050565b600082825260208201905092915050565b7f4f776e61626c653a2063616c6c6572206973206e6f7420746865206f776e6572600082015250565b600061159560208361154e565b91506115a08261155f565b602082019050919050565b600060208201905081810360008301526115c481611588565b9050919050565b7f4f776e61626c653a2063616c6c6572206d757374206265206e6577206f776e6560008201527f7200000000000000000000000000000000000000000000000000000000000000602082015250565b600061162760218361154e565b9150611632826115cb565b604082019050919050565b600060208201905081810360008301526116568161161a565b9050919050565b7f746865207075626c69632070726f6f6620696e7075742068617320616e20696e60008201527f636f7272656374206c656e677468000000000000000000000000000000000000602082015250565b60006116b9602e8361154e565b91506116c48261165d565b604082019050919050565b600060208201905081810360008301526116e8816116ac565b9050919050565b7f4e487b7100000000000000000000000000000000000000000000000000000000600052603260045260246000fd5b7f7468652070726f6f66206f7574707574206973206e6f742076616c6964000000600082015250565b6000611754601d8361154e565b915061175f8261171e565b602082019050919050565b6000602082019050818103600083015261178381611747565b9050919050565b6000819050919050565b61179d8161178a565b81146117a857600080fd5b50565b6000815190506117ba81611794565b92915050565b6000602082840312156117d6576117d5610ffb565b5b60006117e4848285016117ab565b91505092915050565b7f74686520726f6f7420696e207468652070726f6f6620646f65736e2774206d6160008201527f7463680000000000000000000000000000000000000000000000000000000000602082015250565b600061184960238361154e565b9150611854826117ed565b604082019050919050565b600060208201905081810360008301526118788161183c565b9050919050565b7f4e487b7100000000000000000000000000000000000000000000000000000000600052601160045260246000fd5b60006118b982610fbd565b91506118c483610fbd565b92508282039050818111156118dc576118db61187f565b5b92915050565b7f7468652063757272656e742074696d6520697320696e636f7272656374000000600082015250565b6000611918601d8361154e565b9150611923826118e2565b602082019050919050565b600060208201905081810360008301526119478161190b565b9050919050565b7f7472616e73616374696f6e207375626d6974746572206973206e6f742061757460008201527f686f72697a656420746f2075736520746869732070726f6f6600000000000000602082015250565b60006119aa60398361154e565b91506119b58261194e565b604082019050919050565b600060208201905081810360008301526119d98161199d565b9050919050565b600060029050919050565b600081905092915050565b6000819050919050565b611a0981610fbd565b82525050565b6000611a1b8383611a00565b60208301905092915050565b6000602082019050919050565b611a3d816119e0565b611a4781846119eb565b9250611a52826119f6565b8060005b83811015611a83578151611a6a8782611a0f565b9650611a7583611a27565b925050600181019050611a56565b505050505050565b600060029050919050565b600081905092915050565b6000819050919050565b600081905092915050565b611abf816119e0565b611ac98184611aab565b9250611ad4826119f6565b8060005b83811015611b05578151611aec8782611a0f565b9650611af783611a27565b925050600181019050611ad8565b505050505050565b6000611b198383611ab6565b60408301905092915050565b6000602082019050919050565b611b3b81611a8b565b611b458184611a96565b9250611b5082611aa1565b8060005b83811015611b81578151611b688782611b0d565b9650611b7383611b25565b925050600181019050611b54565b505050505050565b600081519050919050565b600082825260208201905092915050565b6000819050602082019050919050565b6000602082019050919050565b6000611bcd82611b89565b611bd78185611b94565b9350611be283611ba5565b8060005b83811015611c13578151611bfa8882611a0f565b9750611c0583611bb5565b925050600181019050611be6565b5085935050505092915050565b600061012082019050611c366000830187611a34565b611c436040830186611b32565b611c5060c0830185611a34565b818103610100830152611c638184611bc2565b905095945050505050565b611c77816114bf565b8114611c8257600080fd5b50565b600081519050611c9481611c6e565b92915050565b600060208284031215611cb057611caf610ffb565b5b6000611cbe84828501611c85565b91505092915050565b7f7468652070726f6f6620697320696e636f727265637400000000000000000000600082015250565b6000611cfd60168361154e565b9150611d0882611cc7565b602082019050919050565b60006020820190508181036000830152611d2c81611cf0565b9050919050565b7f4f776e61626c653a206e6577206f776e65722063616e6e6f742062652074686560008201527f207a65726f206164647265737300000000000000000000000000000000000000602082015250565b6000611d8f602d8361154e565b9150611d9a82611d33565b604082019050919050565b60006020820190508181036000830152611dbe81611d82565b905091905056fea2646970667358221220acc129b70a68c941fa59eac107a17d45a890a2cfeee19fc3d86d5c1c257ff89c64736f6c63430008110033",
  "linkReferences": {},
  "deployedLinkReferences": {}
}